:1000000099C00000B4C00000B2C00000B0C0000041
:10001000AEC00000ACC00000AAC00000A8C0000034
:10002000A6C00000A4C00000A2C00000A0C0000044
:100030009EC000009CC000009AC0000098C0000054
:1000400096C0000077C3000092C0000090C000007E
:100050008EC000008CC000008AC0000088C0000074
:1000600086C0000084C0000082C0000080C0000084
:1000700012C400007CC000007AC0000078C00000FC
:1000800076C0000074C0000072C0000070C00000A4
:100090006EC000006CC000006AC0000068C00000B4
:1000A00066C0000064C0000062C0000060C00000C4
:1000B0005EC000005CC000005AC0000058C00000D4
:1000C00056C0000054C0000052C0000050C00000E4
:1000D0004EC000004CC000004AC0000048C00000F4
:1000E00046C0000044C0000042C00000B8C000008C
:1000F000C6C000003CC000003AC00000A6C000001E
:1001000036C0000034C0000032C0000030C0000023
:100110002EC000002CC000002AC0000028C0000033
:1001200026C0000024C0000022C0000020C0000043
:100130001EC0000011241FBECFEFD1E4DEBFCDBF33
:1001400012E0A0E0B2E0EEEDF8E000E00BBF02C08C
:1001500007900D92A03BB107D9F723E0A0EBB2E0E6
:1001600001C01D92A633B207E1F7B9D2B6C348CF9A
:1001700086E092E058D1E2EBF2E082E393E0119264
:10018000E817F907E1F71092340310923303109245
:10019000320310923103E9E3F1E0808181608083D2
:1001A0008FEC97E00197F1F700C0000010924E012C
:1001B00088E0809342018FEC97E00197F1F700C04F
:1001C000000087E192E02FD1809141018F7188304A
:1001D000D9F4E4E4F1E08081806280838CE4809350
:1001E0004E01E8E4F1E08081807E8B608083109294
:1001F0004501E2E4F1E08081807E866080838EE2CA
:1002000092E011D181E0089580E00895E2E4F1E008
:100210009081907E99609083E1E4F1E09081997003
:10022000E9F393E09093800180938101E9E3F1E0A9
:1002300080818260808380818D7F8083E2E4F1E031
:100240008081807E8660808308951F920F920FB612
:100250000F9211240F900FBE0F901F9018951F92B0
:100260000F920FB60F9211248F93809146018093C5
:1002700035038F910F900FBE0F901F9018951F920E
:100280000F920FB60F9211240BB60F92CF92DF92FE
:10029000EF92FF920F931F932F933F934F935F9390
:1002A0006F937F938F939F93AF93BF93EF93FF933E
:1002B000CF93DF93CDB7DEB7CF57D109DEBFCDBF28
:1002C00080913503877009F482C010917B01C12EA3
:1002D000D12CA60160E871E0CE010196F5D2E09143
:1002E0003103F091320331969F01A5E0B2E0DDD2F7
:1002F000281B390B36952795820F931F0024880FF2
:10030000991F001C880F991F001C892F902D9C019C
:100310003695322F222737952795A901481B590B6F
:10032000BF01641B750BCB01209133033091340363
:100330006217730709F44BC0123009F448C08E01EC
:100340000F5F1F4FAFEFBFEFAC0FBD1FCA0EDB1E1D
:1003500041E353E00F2EF3E3EF2EF3E0FF2EF02DF9
:10036000DA01ED91FC91D8012D918D01EE54FD4FF4
:100370002083FA0191838083FC0131969F01A5E0DF
:10038000B2E093D2281B390B36952795820F931F25
:100390000024880F991F001C880F991F001C892FAB
:1003A000902D9C013695322F222737952795B9013C
:1003B000681B790BDF01A61BB70BCD01F70120816C
:1003C00031812A173B0719F00C151D0549F6C15854
:1003D000DF4F0FB6F894DEBF0FBECDBFDF91CF91D8
:1003E000FF91EF91BF91AF919F918F917F916F910D
:1003F0005F914F913F912F911F910F91FF90EF903F
:10040000DF90CF900F900BBE0F900FBE0F901F90FC
:100410001895E0ECF0E0908195FFFDCF8093C60049
:1004200081E090E00895CF93DF93EC0188818823E9
:1004300029F02196EEDF89918111FCCFDF91CF91D8
:10044000089588E18093C10086E08093C2001092F5
:10045000C50083E38093C4008AE392E0E4CF08956B
:10046000529A539A549A809A819A829A5A9A5C9A8A
:100470005B9AE1E8F0E0808188608083AFE6B0E0DD
:100480008C9182608C9388EE93E0909389008093A6
:100490008800808182608083789408959C01225036
:1004A00031092330310580F56130710531F062305A
:1004B0007105F1F0672B41F50EC04BB121E030E042
:1004C000B90102C0660F771F8A95E2F7CB018095CC
:1004D00084238BB908954BB121E030E0B90102C00B
:1004E000660F771F8A95E2F7CB01842B8BB90895AD
:1004F0004BB121E030E0B90102C0660F771F8A9549
:10050000E2F7CB0184278BB908958A9820E030E088
:1005100061E070E08998E1B3AB01022E02C0440FA4
:10052000551F0A94E2F748235923022E02C056951C
:1005300047950A94E2F75E2F542B51BB899A51B329
:100540004095452341BB2F5F3F4F2031310511F7C7
:100550008A9A0895CF93DF93CDB7DEB7C255D109FC
:100560000FB6F894DEBF0FBECDBFFC019E012F5F1A
:100570003F4F82E1D9011D928A95E9F782E090E030
:100580009A83898380E22E5E3F4FD901482F1D92C6
:100590004A95E9F7AE014D5C5F4FDA011D928A95ED
:1005A000E9F7408151815E874D875C834B835A8B8D
:1005B000498B5A87498782819381988B8F879E8345
:1005C0008D83848195819C878B8798878F83FE019B
:1005D0003396D90141E050E081919191009729F43F
:1005E00013965C934E93129705C0019719F41196D8
:1005F0005C934E931496E217F30771F78B899C89ED
:1006000098AF8FAB8D899E899AAF89AF8F89988D6E
:1006100021969FAF8EAF2197898D9A8D23969FAF9C
:100620008EAF23978B8D9C8D9EAB8DAB8D8D9E8DCC
:100630009CAB8BAB8F8D98A19CAF8BAF89A19AA1FE
:100640009EAF8DAF8BA19CA161969FAF8EAF61973E
:100650008DA19EA163969FAF8EAF63978FA198A542
:100660002F969FAF8EAF2F9789A59AA52D969FAFF6
:100670008EAF2D978BA59CA527969FAF8EAF279702
:100680008DA59EA525969FAF8EAF25978FA598A97E
:1006900029969FAF8EAF299789A99AA92B969FAFCC
:1006A0008EAF2B97FE01F3962FE030E080E090E0D4
:1006B00041915191022E02C0440F551F0A94E2F756
:1006C000842B952B2150310998F7CE5ADF4F0FB666
:1006D000F894DEBF0FBECDBFDF91CF910895C0DE8D
:1006E000B0DE8BE045DD813021F48AE492E09BDED0
:1006F00003C083E692E097DE8FE892E094DEC0ECE0
:10070000D0E006EC10E088818823ECF7F801F08057
:1007100061E070E082E090E0C1DE8F2D77DD9881AE
:1007200095FFFDCFF801F08260E070E082E090E09C
:10073000B5DEE9CF1F920F920FB60F9211240BB6C0
:100740000F922F933F934F935F936F937F938F936A
:100750009F93AF93BF93CF93DF93EF93FF938091DA
:10076000B0029091B1028336910529F41092B10242
:100770001092B00224C001969093B1028093B0020F
:1007800081339105E9F154F48831910549F18E31B5
:10079000910559F1892B09F069C011C08A3491057E
:1007A00009F440C01CF4C697B1F160C080359105D2
:1007B00009F43FC08336910509F446C057C082E072
:1007C00090E0909301028093000210920302109235
:1007D000020281E090E0909305028093040239C008
:1007E000109201021092000234C082E090E09093D7
:1007F000030280930202909305028093040229C0B1
:1008000081E090E09093030280930202109205022F
:10081000109204021EC082E090E090930102809347
:10082000000217C081E090E09093010280930002E3
:1008300010C082E090E090930302809302029093B4
:1008400005028093040205C062E070E083E090E05E
:1008500025DE80E092E07EDEC82FD92F8FE992E07E
:10086000E2DD8C2FD6DD8C2F9D2F4FDEFF91EF9197
:10087000DF91CF91BF91AF919F918F917F916F91B8
:100880005F914F913F912F910F900BBE0F900FBE34
:100890000F901F9018951F920F920FB60F92112470
:1008A0000F900FBE0F901F901895A29FB001B39F9D
:1008B000C001A39F700D811D1124911DB29F700D69
:1008C000811D1124911D0895FB01DC0102C00190DE
:0E08D0000D9241505040D8F70895F894FFCF94
:1008DE00020002000200524620496E6974207374B1
:1008EE0061727465640A000A5452585F535441543D
:1008FE00452053657420746F206F66660A00524659
:10090E0020496E6974204F4B0A00555341525420B2
:10091E00696E69746961746564005246205374612E
:10092E007274656420776974682073756363657388
:10093E00730A00486F7573746F6E2C20776520688C
:10094E0061766520612070726F626C656D2E20522B
:10095E0046204E4F5420574F524B494E470A0045A2
:10096E0063686F206D6F6465204F4E203A0A004217
:10097E0053525F4865785F636F6D6D616E643A00C8
:00000001FF
