:1000000099C00000B4C00000B2C00000B0C0000041
:10001000AEC00000ACC00000AAC00000A8C0000034
:10002000A6C00000A4C00000A2C00000A0C0000044
:100030009EC000009CC000009AC0000098C0000054
:1000400096C00000ACC2000092C0000090C000004A
:100050008EC000008CC000008AC0000088C0000074
:1000600086C0000084C0000082C0000080C0000084
:100070007EC000007CC000007AC0000078C0000094
:1000800076C0000074C0000072C0000070C00000A4
:100090006EC000006CC000006AC0000068C00000B4
:1000A00066C0000064C0000062C0000060C00000C4
:1000B0005EC000005CC000005AC0000058C00000D4
:1000C00056C0000054C0000052C0000050C00000E4
:1000D0004EC000004CC000004AC0000048C00000F4
:1000E00046C0000044C0000042C00000B8C000008C
:1000F000C6C000003CC000003AC00000A6C000001E
:1001000036C0000034C0000032C0000030C0000023
:100110002EC000002CC000002AC0000028C0000033
:1001200026C0000024C0000022C0000020C0000043
:100130001EC0000011241FBECFEFD1E4DEBFCDBF33
:1001400012E0A0E0B2E0E8E2F6E000E00BBF02C09F
:1001500007900D92AA3AB107D9F723E0AAEAB2E0D4
:1001600001C01D92AE32B207E1F7E8D15BC248CFC1
:1001700080E092E058D1EAEAF2E08AE293E011925C
:10018000E817F907E1F710922C0310922B03109255
:100190002A0310922903E9E3F1E0808181608083E2
:1001A0008FEC97E00197F1F700C0000010924E012C
:1001B00088E0809342018FEC97E00197F1F700C04F
:1001C000000081E192E02FD1809141018F71883050
:1001D000D9F4E4E4F1E08081806280838CE4809350
:1001E0004E01E8E4F1E08081807E8B608083109294
:1001F0004501E2E4F1E08081807E8660808388E2D0
:1002000092E011D181E0089580E00895E2E4F1E008
:100210009081907E99609083E1E4F1E09081997003
:10022000E9F393E09093800180938101E9E3F1E0A9
:1002300080818260808380818D7F8083E2E4F1E031
:100240008081807E8660808308951F920F920FB612
:100250000F9211240F900FBE0F901F9018951F92B0
:100260000F920FB60F9211248F93809146018093C5
:100270002D038F910F900FBE0F901F9018951F9216
:100280000F920FB60F9211240BB60F92CF92DF92FE
:10029000EF92FF920F931F932F933F934F935F9390
:1002A0006F937F938F939F93AF93BF93EF93FF933E
:1002B000CF93DF93CDB7DEB7CF57D109DEBFCDBF28
:1002C00080912D03877009F482C010917B01C12EAB
:1002D000D12CA60160E871E0CE0101969AD1E0919F
:1002E0002903F0912A0331969F01A5E0B2E082D163
:1002F000281B390B36952795820F931F0024880FF2
:10030000991F001C880F991F001C892F902D9C019C
:100310003695322F222737952795A901481B590B6F
:10032000BF01641B750BCB0120912B0330912C0373
:100330006217730709F44BC0123009F448C08E01EC
:100340000F5F1F4FAFEFBFEFAC0FBD1FCA0EDB1E1D
:1003500049E253E00F2EFBE2EF2EF3E0FF2EF02DEB
:10036000DA01ED91FC91D8012D918D01E655FD4FFB
:100370002083FA0191838083FC0131969F01A5E0DF
:10038000B2E038D1281B390B36952795820F931F81
:100390000024880F991F001C880F991F001C892FAB
:1003A000902D9C013695322F222737952795B9013C
:1003B000681B790BDF01A61BB70BCD01F70120816C
:1003C00031812A173B0719F00C151D0549F6C15854
:1003D000DF4F0FB6F894DEBF0FBECDBFDF91CF91D8
:1003E000FF91EF91BF91AF919F918F917F916F910D
:1003F0005F914F913F912F911F910F91FF90EF903F
:10040000DF90CF900F900BBE0F900FBE0F901F90FC
:100410001895E0ECF0E0908195FFFDCF8093C60049
:1004200081E090E00895CF93DF93EC0188818823E9
:1004300029F02196EEDF89918111FCCFDF91CF91D8
:10044000089588E18093C10086E08093C2001092F5
:10045000C50083E38093C40084E392E0E4DF8EE48C
:1004600092E0E1CF0895529A539A549A84E08BB95E
:100470005C9A5B9AE1E8F0E0808188608083AFE677
:10048000B0E08C9182608C9388E09DE3909389002A
:1004900080938800808183608083789408959C0194
:1004A000225031092330310580F56130710531F07A
:1004B00062307105F1F0672B41F50EC04BB121E0C0
:1004C00030E0B90102C0660F771F8A95E2F7CB01D1
:1004D000809584238BB908954BB121E030E0B901B8
:1004E00002C0660F771F8A95E2F7CB01842B8BB988
:1004F00008954BB121E030E0B90102C0660F771FCB
:100500008A95E2F7CB0184278BB90895CF93DF93C7
:10051000CAE0D0E062E070E084E090E0C0DF2FEF5E
:1005200083EC99E0215080409040E1F700C000004A
:100530002197209779F7DF91CF91089594DFE6DF37
:1005400080DF8BE015DE813021F485E592E06BDF02
:1005500003C08EE692E067DF8AE992E064DFC0ECD8
:10056000D0E006EC10E061E070E082E090E097DF20
:100570008AE04CDE888185FFFDCF8AE0F801808328
:1005800060E070E082E090E08ADFFFEF20E782E049
:10059000F15020408040E1F700C00000E4CF1F92FE
:1005A0000F920FB60F9211240BB60F922F933F9319
:1005B0004F935F936F937F938F939F93AF93BF936B
:1005C000EF93FF9362E070E083E090E068DFFF91DB
:1005D000EF91BF91AF919F918F917F916F915F91BB
:1005E0004F913F912F910F900BBE0F900FBE0F9028
:1005F0001F901895A29FB001B39FC001A39F700DDB
:10060000811D1124911DB29F700D811D1124911D1A
:100610000895FB01DC0102C001900D924150504051
:08062000D8F70895F894FFCF0C
:10062800524620496E697420737461727465640A55
:10063800000A5452585F535441544520536574205E
:10064800746F206F66660A00524620496E697420EE
:100658004F4B0A004974277320676F696E672074CF
:100668006F206265206C6567656E2E2E2E006461B2
:100678007279210A005246205374617274656420AD
:100688007769746820737563636573730A00486FCC
:100698007573746F6E2C20776520686176652061AC
:1006A8002070726F626C656D2E205246204E4F543A
:1006B80020574F524B494E470A004563686F206DDB
:0A06C8006F6465204F4E203A0A00CF
:00000001FF
