S01100004561726C79546573742E7372656376
S11300008FC00000AAC00000A8C00000A6C0000065
S1130010A4C00000A2C00000A0C000009EC0000058
S11300209CC000009AC0000098C0000096C0000068
S113003094C0000092C0000090C000008EC0000078
S11300408CC00000F6C2000088C0000086C000001A
S113005084C0000082C0000080C000007EC0000098
S11300607CC000007AC0000078C0000076C00000A8
S113007074C0000072C0000070C000006EC00000B8
S11300806CC000006AC0000068C0000066C00000C8
S113009064C0000062C0000060C000005EC00000D8
S11300A05CC000005AC0000058C0000056C00000E8
S11300B054C0000052C0000050C000004EC00000F8
S11300C04CC000004AC0000048C0000046C0000008
S11300D044C0000042C0000040C000003EC0000018
S11300E03CC000003AC0000038C00000C6C0000098
S11300F0F3C0000032C0000030C0000093C0000014
S11301002CC000002AC0000028C0000026C0000047
S113011024C0000022C0000020C000001EC0000057
S113012011241FBECFEFD1E4DEBFCDBF12E0A0E0AB
S1130130B2E0EAE7F6E000E00BBF02C007900D92E0
S1130140AC32B107D9F722E0ACE2B2E001C01D92B3
S1130150A03BB207E1F75FD28EC252CFECE2F2E0ED
S11301608CEA92E01192E817F907E1F71092AE02D7
S11301701092AD021092AC021092AB02E9E3F1E0EE
S113018080818160808310924E0188E080934201D7
S11301908FE99FE00197F1F700C0000080914101D1
S11301A08F718830B1F4E4E4F1E08081806280836F
S11301B08CE480934E01E8E4F1E08081807E8B60E2
S11301C08083E2E4F1E08081807E8660808381E048
S11301D0089580E00895CF93C82FE2E4F1E0808190
S11301E0807E89608083E1E4F1E090819970E9F395
S11301F061E070E086E090E083D183E08093800149
S1130200C0938101E9E3F1E0808182608083808191
S11302108D7F8083E2E4F1E08081807E866080834C
S1130220CF9108951F920F920FB60F9211240BB61F
S11302300F922F933F934F935F936F937F938F937B
S11302409F93AF93BF93EF93FF9360E070E086E0DA
S113025090E056D1FF91EF91BF91AF919F918F9113
S11302607F916F915F914F913F912F910F900BBEB2
S11302700F900FBE0F901F9018951F920F920FB6FC
S11302800F9211240BB60F922F933F934F935F93CA
S11302906F937F938F939F93AF93BF93EF93FF934A
S11302A060E070E086E090E02BD18091460180937D
S11302B0AF02FF91EF91BF91AF919F918F917F9189
S11302C06F915F914F913F912F910F900BBE0F90C3
S11302D00FBE0F901F9018951F920F920FB60F929A
S11302E011240BB60F92CF92DF92EF92FF920F93ED
S11302F01F932F933F934F935F936F937F938F93AA
S11303009F93AF93BF93EF93FF93CF93DF93CDB7B7
S1130310DEB7CF57D109DEBFCDBF8091AF02877062
S113032009F482C010917B01C12ED12CA60160E892
S113033071E0CE01019696D1E091AB02F091AC024E
S113034031969F01A5E0B2E07ED1281B390B36958A
S11303502795820F931F0024880F991F001C880F74
S1130360991F001C892F902D9C013695322F22272E
S113037037952795A901481B590BBF01641B750BC1
S1130380CB012091AD023091AE026217730709F4DC
S11303904BC0123009F448C08E010F5F1F4FAFEFFE
S11303A0BFEFAC0FBD1FCA0EDB1E4BEA52E00F2E8F
S11303B0FDEAEF2EF2E0FF2EF02DDA01ED91FC9133
S11303C0D8012D918D01E45DFD4F2083FA019183C5
S11303D08083FC0131969F01A5E0B2E034D1281B53
S11303E0390B36952795820F931F0024880F991F88
S11303F0001C880F991F001C892F902D9C01369595
S1130400322F222737952795B901681B790BDF0115
S1130410A61BB70BCD01F701208131812A173B07B9
S113042019F00C151D0549F660E070E086E090E0D7
S113043067D0C158DF4F0FB6F894DEBF0FBECDBFF3
S1130440DF91CF91FF91EF91BF91AF919F918F91E8
S11304507F916F915F914F913F912F911F910F91D8
S1130460FF90EF90DF90CF900F900BBE0F900FBED8
S11304700F901F901895E0ECF0E0908195FFFDCF70
S11304808093C60081E090E00895CF93DF93EC0160
S11304908881882329F02196EEDF89918111FCCF90
S11304A0DF91CF91089588E18093C10086E0809325
S11304B0C2001092C50087E68093C40080E092E0F9
S11304C0E4DF2FEF87EA91E6215080409040E1F786
S11304D000C000008AE192E0D8CF0895269A279AB6
S11304E0E1E8F0E080818860808388E09DE3909378
S11304F08900809388008081836080837894089544
S11305009C01265031092230310508F048C0613081
S11305107105A1F062307105F1F0672B09F03FC05D
S113052045B121E030E0B90102C0660F771F8A951A
S1130530E2F7CB018095842385B9089545B121E084
S113054030E0B90102C0660F771F8A95E2F7CB014C
S1130550842B85B9089525B130E0082E02C0359565
S113056027950A94E2F720FF0EC045B121E030E060
S1130570B90102C0660F771F8A95E2F7CB01809517
S1130580842385B9089545B121E030E0B90102C062
S1130590660F771F8A95E2F7CB01842B85B90895FE
S11305A0CF93DF93C0E0D0E0BE0161707078772311
S11305B034F4615071096E6F7F6F6F5F7F4F86E017
S11305C090E09EDF2196BE0161707078772334F449
S11305D0615071096E6F7F6F6F5F7F4F87E090E0AE
S11305E08FDF2FEF81EE94E0215080409040E1F7BF
S11305F000C00000CA30D105B9F68BE0AFDD813010
S113060021F481E292E041DF03C081E292E03DDF28
S1130610DF91CF91089562DF46DFC2DFC0ECD0E006
S113062006EC10E088818823ECF7F8018081D3DDA3
S1130630F9CF1F920F920FB60F9211240F900FBE95
S11306400F901F901895A29FB001B39FC001A39F64
S1130650700D811D1124911DB29F700D811D1124F7
S1130660911D0895FB01DC0102C001900D924150DF
S10D06705040D8F70895F894FFCF26
S113067A4974277320676F696E6720746F206265F7
S113068A206C6567656E2E2E2E0064617279210ACC
S10F069A0052462053554343455353007F
S9030000FC
